:020000040800F2
:1000000028080020B5010008D12A00085D26000854
:10001000CD2A000895030008FD2B00080000000011
:10002000000000000000000000000000D92A0008C5
:10003000A503000800000000D52A0008DD2A0008FA
:10004000CF010008CF010008CF010008CF01000850
:10005000CF010008CF010008CF010008CF01000840
:10006000CF010008CF010008CF0100089903000864
:10007000CF010008CF010008CF010008CF01000820
:10008000CF010008CF010008CF010008CF01000810
:10009000CF010008CF010008CF010008CF01000800
:1000A000CF010008CF010008CF010008CF010008F0
:1000B000CF010008CF010008CF010008CF010008E0
:1000C000CF010008CF010008CF010008CF010008D0
:1000D000CF010008F12B0008CF010008CF01000874
:1000E000CF010008CF010008CF01000800F002F89E
:1000F00000F050F814A696E8000CB244B344DA4578
:1001000001D100F047F8BAE80F000FA696E83000DA
:10011000A5EB040504EB0607AAEB0704A7F101070A
:100120004FEA15154FEA3414A4F10104AC4201D38F
:1001300000F030F813F0010F18BFFB1A43F0010371
:1001400000F001F8DBE71847743200009432000039
:10015000103A24BF78C878C1FAD8520724BF30C8F3
:1001600030C144BF04680C60704700007047000055
:100170000023002400250026103A28BF78C1FBD8B0
:10018000520728BF30C148BF0B6070471FB51FBD65
:1001900010B510BD00F031F81146FFF7F7FF02F07F
:1001A00031FD00F04FF803B4FFF7F2FF03BC00F09D
:1001B00057F800000948804709480047FEE7FEE776
:1001C000FEE7FEE7FEE7FEE7FEE7FEE7FEE7FEE707
:1001D00004480549054A064B70470000E12A00081B
:1001E000ED00000828020020280800202804002034
:1001F00028040020704770477047754600F02CF8BF
:10020000AE4605006946534620F00700854618B003
:1002100020B5FFF7DDFFBDE820404FF000064FF0AE
:1002200000074FF000084FF0000BAC46ACE8C009E7
:10023000ACE8C009ACE8C009ACE8C00921F007018E
:100240008D46704710B50446AFF300802046BDE8E8
:100250001040FFF7A8BF00000048704710000020C2
:1002600001491820ABBEFEE72600020070470000DF
:100270000146406A826A12F0500F03D0006A026B96
:10028000084610470168826A42F4007282628968F7
:1002900001F46021B1F5602F01D1017B11B100F0B3
:1002A00089B900BF816A21F480718162816AC904C1
:1002B00048BF00F07FB9816A41F00101816200F01E
:1002C00079B90000406A816A41F040018162C16AE7
:1002D00041F00401C16200F071B90000406A00F011
:1002E0006BB90000B0B582B00446002001902168CF
:1002F0008A68D2074BD1886840F00100886040F2DC
:100300000800C2F2000000684DF68361C4F21B31A0
:10031000A0FB0101880C01900198A0B1019801385F
:100320000190019878B1019801380190019850B17D
:10033000019801380190019828B101980138019085
:1003400001980028EAD100F0D5FD21688968C90725
:100350001CD1054603E000BF8068C00716D100F03D
:10036000C9FD411B20680329F6D38168C907F3D171
:10037000A06A40F01000A062E06A40F00100E06274
:10038000002084F82400012002B0B0BD002002B09B
:10039000B0BD0000FEE7000040F2B400C2F2000071
:1003A00000F038BB70470000EFF3108072B600BF5A
:1003B000FEE7000080B588B040F28400C2F2000081
:1003C0006946082200F012FA9DE805400023C7287C
:1003D00040F27400DDF80CC088BF0123C2F20000B7
:1003E000C72A4FF00002038088BF0122428000220A
:1003F000BEF1C70F88BF012282800022BCF1C70F67
:1004000088BF0122049BC2800022C72B88BF012223
:10041000059B02810022C72B88BF0122069B4281D7
:100420000022C72B88BF0122079B00218281C72B96
:1004300088BF0121C18108B080BD000010B581B026
:100440000022009290F82420012A03D102210846BC
:1004500001B010BD4B680122062B80F8242033D850
:10046000D0F800C003EB83035A1F1F23DCF834E0ED
:1004700003FA02F40B682EEA040403FA02F22243A0
:10048000CCF83420092B03EB430249D9DCF80CE00B
:100490001E3A0724896894402EEA0404914023F010
:1004A00001022143102ACCF80C1043D142F208413A
:1004B000C4F20101A1F10802944543D0816A41F0E0
:1004C00020018162012136E0D0F800C00C2B03EB43
:1004D000830213D8233A1F23DCF830E003FA02F436
:1004E0000B682EEA040403FA02F22243CCF830200F
:1004F000092B03EB4302C9D812E000BF413A1F2386
:10050000DCF82CE003FA02F40B682EEA040403FA88
:1005100002F22243CCF82C20092B03EB4302B5D87E
:10052000DCF81030072489689440A34391401943B4
:10053000CCF810100021002280F82420084601B0D9
:1005400010BD00BF0A681202F4D40A68102B42F4EE
:1005500000020A60EED140F20801C2F2000109680F
:100560004DF68362C4F21B32A1FB0212910C01EB27
:1005700081014900009100990029DBD000990139DF
:10058000009100990029D5D0009901390091009976
:100590000029CFD000990139009100990029C9D0D4
:1005A000009901390091009900294FF00001E5D12F
:1005B000C1E700007047000070470000704700006E
:1005C000002804BF01207047B0B50446806A28B1F6
:1005D00021688868C0070CD115E000BF0020E062E8
:1005E00084F82400204600F097F821688868C00746
:1005F00009D0886820F00100886000F07BFC216849
:100600008A68D20726D1A06AC0063AD4A06A41F20D
:10061000021290430230A062E069D4E9013240EA5C
:10062000030C531EB3FA83F35D091346B2F5807FC2
:1006300018BF2B02207D257B01284CEA45002CD1D8
:1006400035B3A56A45F02005A562E56A45F00105C8
:10065000E56222E0054602E08868C007D3D000F0DA
:1006600049FC401B21680328F6D38868C007F3D0F3
:10067000A06A40F01000A062E06A40F00100E06271
:10068000A06AA06A40F01000A0620120B0BD00BFC7
:10069000A56903EB4533A3F5C0534D68B2F5807FE0
:1006A00025F4694543EA05034B608B684FF2FD75FD
:1006B000CFF6E17503EA050343EA00038B6001D03E
:1006C000012A07D122690023CFF6F07303EB02520F
:1006D00001E000BF0022CB6A23F470031A43CA6210
:1006E000896840F6FE62CFF61F721140814207D141
:1006F0000020E062A16A012262F30101A162B0BDA3
:10070000A06A40F0100020F00200A062E06A40F011
:100710000100E0620120B0BD2DE9F04186B040F655
:1007200000050446C4F20105006805F5E051002704
:1007300088420597CDE90377029703D006B0BDE85C
:10074000F08100BF41F21800C4F2020001680DF10F
:10075000080841F4007101600168032601F400718A
:1007600001910199016841F004010160016801F003
:10077000040101910199016841F0080101600068DC
:10078000414600F0080001900198FE2002902846A2
:10079000039600F0A1FA0120CDE9020605F580607C
:1007A000414600F099FA40F2B4050820C2F2000573
:1007B000C4F202004FF48072C5E9000705F1100091
:1007C00080214FF4806320264FF4005C80E84C10B9
:1007D0002846C5E9027100F0EDF9002818BFFFF7BF
:1007E000E3FD25626C6206B0BDE8F081F0B581B032
:1007F000036842F60006C4F20106B34205D042F295
:100800000046C4F20106B3420AD142F20443C4F2E4
:1008100001031B6813F4702F02D0012001B0F0BD5A
:1008200090F82430012B03D1022001B0F0BD00BFAD
:100830000D460121174680F824100646FFF752FDA9
:1008400030B1002086F82400012001B0F0BD00BFC7
:1008500042F204403168B36AC4F20100324640F605
:100860000176B34300F57F7603F58073B14293625E
:1008700044D0906A20F4801090624868400504D506
:10088000906A012363F30D309062936A0020DB04C9
:100890004FF0000344BFD36A23F00603D36282F80B
:1008A0002400106A40F2712340F2DD26C0F60003F6
:1008B000C0F6000640F2C524C0F60004C0E90A36BE
:1008C0006FF0020304630B608B68144643F480737B
:1008D0008B604C312A463B4600F0AEF920688168B7
:1008E00001F460228168B2F5602F0CBF41F4A001D1
:1008F00041F480118160002001B0F0BD036813F461
:10090000702FB6D0936A43F4801393620068400559
:10091000B6D4BAE7014690F82100022816D108683B
:10092000D1E90FC3026822F00E020260026822F0D1
:1009300001020260012000FA03F2CCF8042081F8E1
:1009400021000020002281F82020704704208863C5
:100950000120002281F820207047000090F821102B
:10096000022923D1026840F2040C1168C4F2020C7F
:1009700021F00E01116013682F21C4F202018A4296
:1009800023F00103136015DD3023C4F202039A4201
:100990001CD04423C4F202039A421BD05823C4F251
:1009A00002039A421CD14FF4803321E00421816379
:1009B000012070470823C4F202039A420ED01C2380
:1009C000C4F202039A420BD1102311E04FF480735A
:1009D0000EE000BF4FF480530AE000BF012307E0A0
:1009E0000CF168014FF080738A4208BF4FF4801306
:1009F0000121CCF8003080F82110416B0022002941
:100A000080F8202004BF0020704780B58847002070
:100A100080BD000010B5D0E90FCE0168DCF80030D1
:100A20000A6823FA0EF35C072AD512F0040427D0D3
:100A30000A68920603D40A6822F004020A602F2290
:100A4000C4F20202914240F20402C4F202025BDDEF
:100A50003023C4F20203994272D04423C4F2020349
:100A6000994273D05823C4F20203994240F07A802D
:100A70004FF480231360C16A002940F098806FE032
:100A80009C0727D512F0020424D00A68920606D4E7
:100A90000A6822F00A020A60012280F821202F222F
:100AA000C4F20202914240F20402C4F202023BDDAF
:100AB0003023C4F20203994260D04423C4F20203FB
:100AC00099425FD05823C4F20203994260D14FF497
:100AD000003365E01B0743D512F0080208BF10BDC4
:100AE0000A6822F00E020A60012101FA0EF2CCF827
:100AF0000420816380F82110016B0022002980F816
:100B0000202054D12CE000BF0823C4F202039942F4
:100B100022D01C23C4F20203994223D14023136044
:100B2000C16A002943D11BE00823C4F202039942A1
:100B30002CD01C23C4F20203994229D120232FE098
:100B40004FF480631360C16A89BB09E04FF48043AE
:100B50001360C16A59BB03E004231360C16A31BB4F
:100B600010BD00BF02F168044FF08063A14208BFCE
:100B70004FF480031360C16AC9B9F1E74FF4007301
:100B80000EE000BF4FF400530AE000BF022307E06D
:100B900002F168044FF00073A14208BF4FF4001344
:100BA0001360816A0022002980F82020D8D0BDE897
:100BB00010400847014600284FF0010008BF704769
:100BC0002DE9F043D1F800C04FF6F873CBF6FD7372
:100BD0004CF6CD426344CCF6CC42A3FB02236FF02B
:100BE000030202EA93020023C4F2020301F10C089B
:100BF000C1E90F320222D1E9019E98E8F00181F8A3
:100C00002120DCF8002043F6F0739A4342EA0902FF
:100C100042EA0E0222432A4332433A4342EA08029E
:100C2000CCF8002000228A6381F8210081F820207E
:100C30000020BDE8F043704790F820C0BCF1010FE0
:100C400004BF02207047F0B54FF0010E80F820E09D
:100C500090F821C0BCF1010F26D14FF0020C80F8B2
:100C600021C04FF0000CC0F838C0D0E900C4C56AFC
:100C7000C66BDCF80070102C27F00107CCF8007070
:100C8000006C0EFA00F070600846CCF8043004BF27
:100C900010460A46CCF80800CCF80C20DCF800001E
:100CA00045B140F00E000DE0002180F82010022038
:100CB000F0BD00BF20F00400CCF80000DCF800001C
:100CC00040F00A00CCF80000DCF8000040F0010021
:100CD000CCF800000020F0BD2DE9F04F82B00E6886
:100CE000002E00F0FD8041F20042C4F20102042314
:100CF00040F2004E904208BF03234FF6FF7CC4F23F
:100D0000010E009300240123C1F2100C4FF0000AE1
:100D10004FF000094BE000BF41F20002C4F20102B3
:100D2000009F904208BF022704F00C030F229A4054
:100D30002BEA020207FA03F34FEA9A051A4346F830
:100D400025204E6840F20C45F202DEF8082054BF20
:100D500022EA080242EA0802C4F20105CEF808209D
:100D60002A68B30254BF22EA080242EA08022A6053
:100D7000B303DEF8042054BF22EA080242EA080264
:100D8000F303CEF80420DEF800204FF0010354BF37
:100D900022EA080242EA0802CEF800200E680AF1B0
:100DA000010A36FA0AF204F1040400F0998003FA09
:100DB0000AFB16EA0B08F1D04E68664512DC122ECB
:100DC00056D8DFE806F0350B4D4955555555555564
:100DD0005555555555555545510000BFD1F80C9006
:100DE00046E000BF4FF6FF72C1F2210296420FDCCF
:100DF0000022C1F2110296421AD00022C1F2120260
:100E0000964215D00022C1F22102964210D02FE066
:100E10000022C1F2220296420AD00022C1F231021F
:100E2000964205D00022C1F23202964220D100BF84
:100E30008A684AB1012A14BFC0F814B0C0F810B0D3
:100E40004FF0080914E000BF4FF0040910E000BFA4
:100E5000CA6802F104090BE04FF0000908E000BF86
:100E6000CA6802F1080903E0CA6802F10C0900BF70
:100E700002462646B8F5807F24BF0432203E17681C
:100E80000F25B54027EA050509FA06F63543156032
:100E9000CA79D2067FF582AF41F21803C4F2020389
:100EA0001A68AEF57E7642F001021A601A6802F006
:100EB00001020192019A2AF0030256F802B040F6AC
:100EC0000002C4F20102904208D040F60042C4F28F
:100ED000010290427FF420AF012725E7002723E796
:100EE00002B0BDE8F08F0000002A08BF09040161CC
:100EF0007047000040F22420C2F2000000687047F2
:100F0000002804BF01207047F0B581B0044690F876
:100F10003D0028B9002084F83C00204600F0A2F8EB
:100F2000242084F83D002068016821F0010101605F
:100F3000016841F400410160016821F40041016051
:100F400000F0E8FA636848F2A16CC0F2010C40F6C8
:100F50000011C0F23D0163453CBF48F28041C0F240
:100F60001E01884202D2012001B0F0BD4DF683611E
:100F7000C4F21B31A0FB01122168970CD1F804E0E8
:100F80004FF496762EF03F0545EA92454D60774343
:100F900048F638160D6AC0F24106A7FB067625F022
:100FA0003F07634538BF960C721C3A430A62CA6910
:100FB00048F2A0664CF6FF77C0F20106B34222EA7F
:100FC00007020BD801385B00B0FBF3F001306FF380
:100FD0001F30042898BF04201BE000BFA768013819
:100FE00057B119277B43B0FBF3F001306FF31F308B
:100FF00070B100F5804007E003EB4303B0FBF3F072
:1010000001306FF31F3018B100F5004001E000BF60
:1010100001201043C8610868D4E9072320F0C0000C
:10102000104318430860886848F2FF3204F10C0747
:1010300090438CCF18431043A6698860C86820F09D
:10104000FF0038433043C860086840F00100086082
:1010500000202021206484F83D10206384F83E00A5
:1010600001B0F0BD10B586B0006845F20041C4F291
:10107000000188424FF00000CDE90400CDE90200F4
:1010800002D006B010BD00BF41F21804C4F2020441
:10109000206802A940F008002060206800F00800E5
:1010A000019001984FF440700290122003900320A9
:1010B000059040F60040C4F20100FFF70DFE042049
:1010C000C4F20100016841F0E06141F002010160F9
:1010D000606840F400106060606800F400100190E7
:1010E000019806B010BD000040F2000040F224213B
:1010F000C2F20000C2F2000100780A6810440860E1
:101100007047000080B542F20000C4F2020001689E
:1011100041F010010160032000F08CF80F2000F076
:1011200005F800F027F8002080BD000070B540F2FF
:101130000006C2F2000640F208013278C2F2000155
:101140004FF47A730968B3FBF2F20446B1FBF2F193
:10115000084600F007FC0F2C4FF0010508D838B9FD
:101160004FF0FF3021460022002500F037F8746070
:10117000284670BD82B041F21800C4F20200016836
:10118000022241F001010160016801F001010191B9
:101190000199416841F080514160406800F0805001
:1011A000009000980420C4F20100016862F31A6103
:1011B000016002B070470000002848BF704700F08F
:1011C0001F01012202FA01F11C2202EAD0004EF2B4
:1011D0000012CEF2000281507047000010B54EF6AA
:1011E0000C5CCEF2000CDCF80030C3F3022E8EF063
:1011F0000704042C28BF0424BEF103034FF0FF3E74
:101200000EFA04F438BF0023A14399400EFA03F309
:101210009A43114300F00F0200F160430901043AC0
:1012200003F564436244002848BF02F10C031970BF
:1012300010BD00004EF60C51CEF200010A684FF6C8
:10124000FF031A4060F30A2242F0806040F0FD7014
:10125000086070472DE9F04182B00446007841F201
:101260001C06C007C4F202064AD030685FEAC00814
:1012700008D4306840F080503060306800F0805012
:101280000190019847F20007C4F200073868C005D2
:1012900012D4386840F480703860FFF72BFE0546A2
:1012A0003868C00508D4FFF725FE401B6428F7D92D
:1012B000032002B0BDE8F081706810F4407012D0D5
:1012C000616801F4407188420DD0706840F240427C
:1012D000C4F24222012320F4407113600023C007AE
:1012E0001360716026D17068616820F44070084313
:1012F000B8F1000F706003D4306820F08050306087
:101300002068810707D556F8181CA26821F44041CF
:10131000114346F8181CC00607D556F8180CE168AA
:1013200020F48000084346F8180C002002B0BDE805
:10133000F08100BFFFF7DEFD054641F2883700BFB0
:1013400070688007CFD4FFF7D5FD401BB8424FF03F
:101350000300F5D9EAE70000002804BF0120704728
:101360002DE9F04381B042F20008C4F202080446BD
:10137000D8F800000D4600F0070088420CD2D8F8DB
:10138000000020F007002843C8F80000D8F800004B
:1013900000F00700A8426CD1206841F204098107DF
:1013A000C4F2020917D5410705D5D9F8001041F458
:1013B000E061C9F80010010705D5D9F8001041F423
:1013C0006051C9F80010D9F80010A26821F0F001AE
:1013D0001143C9F80010C00742D1D8F8000000F04E
:1013E0000700A8420CD9D8F8000020F007002843D5
:1013F000C8F80000D8F8000000F00700A84238D173
:101400002068410707D5D9F80010E26821F4E061AF
:101410001143C9F80010000708D5D9F80000216968
:1014200020F4605040EAC100C9F80000D9F800205B
:1014300002F00C00082841F20020C0F27A004DD1E1
:1014400043F2AA33C2F38341C0F60003595CD203CE
:1014500038D440F60010C0F23D0048433EE000BFE3
:10146000606859F8041C022808D0012826D1890395
:1014700006D4012001B0BDE8F08300BF8901F8D592
:10148000D9F8001021F003010843C9F80000FFF764
:1014900031FD064641F28837D9F80000616800F056
:1014A0000C00B0EB810F98D0FFF724FD801BB842F1
:1014B000F2D9032001B0BDE8F08300BF8907D8D579
:1014C000DEE700BFD9F8002043F2A833C2F3404260
:1014D000C0F600039A5C4843B0FBF2F0D9F8001064
:1014E00043F29032C1F30311C0F60002515C40F2A6
:1014F000080220FA01F140F20400C2F20000006884
:10150000C2F200021160FFF711FE002001B0BDE839
:10151000F083000040F2080041F20401C2F2000032
:10152000C4F202010068096843F2A032C1F302214B
:10153000C0F60002515CC8407047000040F208004D
:1015400041F20401C2F20000C4F20201006809681D
:1015500043F2A032C1F3C221C0F60002515CC84080
:1015600070470000002804BF012070472DE9F041BA
:1015700082B00446007841F20006C007C4F20206B9
:101580000CD0706800F00C00042840F081803068B6
:10159000800303D56068002800F04681207880072A
:1015A0001BD5706810F00C0F09D0706800F00C00AB
:1015B000082840F087807068C00300F1838030689D
:1015C000800703D52069012840F02E8130686169C9
:1015D00020F0F80040EAC10030602078000713D402
:1015E000207840072CD4E569002D00F01881706840
:1015F00000F00C00082840F0A780012D40F0048185
:10160000012002B0BDE8F081A069002800F08480CC
:101610000020C4F242200121C0F88014FFF76AFCC8
:10162000054600BF706A800700F1B280FFF762FCD8
:10163000401B0228F6D9032002B0BDE8F08100BFAC
:10164000F0695FEAC00808D4F06940F08050F061AA
:10165000F06900F080500090009847F20007C4F253
:1016600000073868C00549D4386840F48070386095
:10167000FFF740FC054600BF3868C0053ED4FFF7C1
:1016800039FC401B6428F7D9032002B0BDE8F08183
:10169000706800F00C00082803D17068C0033FF5A3
:1016A00076AF61683068002900F00C81B1F5A02F99
:1016B00000F00081B1F5803F40F01A8140F48030A5
:1016C0001CE100BF2069002840F20000C4F2422063
:1016D00000F0888001210160FFF70CFC054600BF87
:1016E000306880073FF572AFFFF704FC401B02280B
:1016F000F6D9032002B0BDE8F08100BFE168306A8E
:10170000002900F09D80052900F09280012940F019
:10171000AF8040F00100B1E00020C4F2422000217F
:10172000C0F88014FFF7E6FB054600BF706A80072B
:101730007FF556AFFFF7DEFB401B0228F6D90320EA
:1017400002B0BDE8F08100BF0027C4F242270020AC
:101750003866FFF7CFFB022D05460DD130688001BA
:1017600040F1DE80FFF7C6FB401B02284FF003006C
:10177000F4D902B0BDE8F081306880014FD5FFF7A1
:10178000B9FB401B02284FF00300F5D9F1E700BF79
:1017900040F20800C2F20000006844F6D351C1F2E2
:1017A0006201A0FB0101480A019000BF00BF01983F
:1017B000411E002801913FF413AF00BF0198411E64
:1017C000002801913FF40CAF00BF0198411E002892
:1017D00001913FF405AF00BF0198411E002801911F
:1017E000E4D1FDE600210160FFF784FB054600BF60
:1017F000306880077FF5F1AEFFF77CFB401B0228C5
:101800004FF00300F4D9B4E77068216A00F4803225
:101810008A4209D1616A00F47010884204D1002024
:1018200002B0BDE8F08100BF012002B0BDE8F08148
:1018300040F004003062306A40F001001EE000BF5A
:1018400020F001003062306A20F004003062FFF7BF
:1018500051FB054641F28837306A800720D5FFF7F3
:1018600049FB401BB8424FF00300F5D981E700BFA8
:1018700020F001003062306A20F004003062FFF78F
:1018800039FB054641F28837306A800708D4FFF7F4
:1018900031FB401BB842F7D9032002B0BDE8F0810C
:1018A000B8F1000F3FF59FAEF06920F08050F06175
:1018B00099E600BF40F480203060306840F480300A
:1018C0001CE000BF20F480303060306820F48020BD
:1018D0003060FFF70FFB0546306880037FF55EAE92
:1018E000FFF708FB401B64284FF00300F4D940E7E2
:1018F00020F480303060306820F480203060FFF7C2
:10190000F9FA0546306880033FF548AEFFF7F2FA72
:10191000401B6428F6D9032002B0BDE8F08100BF67
:10192000206AB0F5803F05D17168A26821F40031CA
:10193000114371607168626A21F4741111430843A4
:10194000706001203866FFF7D5FA044630688001E0
:101950003FF565AFFFF7CEFA001B02284FF00300FA
:10196000F4D906E7411E0020B0EB116F1CBF012027
:1019700070474EF21002CEF2000251604EF6235133
:10198000CEF20001F0230B700721906011607047C8
:1019900090F83C20012A04BF02207047B0B501F145
:1019A00008053CCDD1E900CE23F47C5322F47052DB
:1019B0001A432EF4F0431A432CF4E0431A4324F460
:1019C000C0431A432A43C96922F480420368114381
:1019D0005964002180F83C100020B0BD90F83C20F4
:1019E000012A4FF0020236D010B580F83D2002687F
:1019F000D2F804E0D2F808C00C682EF0700323433C
:101A000040F2FF74C4F20004A24253600ADCB2F157
:101A1000804F13D040F20043C4F200039A420DD02D
:101A200011E000BF42F60043C4F201039A4205D020
:101A300040F60003C4F200039A4204D149682CF036
:101A40008003194391600121002280F83D1080F845
:101A50003C20BDE8104010467047000070B586B0CD
:101A600000680021B0F1804FCDE90411039102918B
:101A700022D042F60041C4F20101884254D141F221
:101A80001800C4F20200016841F00801016000681A
:101A900002A900F00800019001984FF4C0400290A4
:101AA00002200390059040F60040C4F20100FFF7C9
:101AB00013F906B070BD00BF41F21800C4F2020075
:101AC000016840F6004441F0080101600168C4F279
:101AD000010401F0080101910199016802AD41F092
:101AE000040101600068022600F0040001900198E2
:101AF0004FF4816002902046294603960596FFF731
:101B0000EBF84FF40040CDE90206A4F580602946C9
:101B10000596FFF7E1F80420C4F20100016841F0E6
:101B2000E06141F44071016006B070BD90F83C3056
:101B3000012B04BF022070474FEAB202032A00F2D1
:101B4000F1802DE9F043DFE802F003A53B7500BF0B
:101B5000036842F600461D6A1A6AC4F2010622F0C2
:101B600001021A621A465C6852F818CFB3428E68B6
:101B7000D1F800E025F0020545EA06050CD1CE6853
:101B8000D1E9057824F4407425F00C0526F004060C
:101B90003C43354344EA08042CF0730747EA0E0738
:101BA0005C609F614F6809695F631D629F6947F0D0
:101BB00008079F619F6927F004079F61A6E000BFA7
:101BC000036842F600461D6A1A6AC4F2010622F44E
:101BD00080721A621A46D3F804C052F81CEFB3425E
:101BE0008E680C6825F4007545EA06250FD1CE688D
:101BF000D1E90598360240F2FF4725F44065BE431F
:101C000035432CF4405748EA090647EA061C2EF0F3
:101C100073072743C3F804C0DF614F680969DF63B6
:101C20001D62DF6947F00807DF61DF6927F00407FD
:101C3000DF616BE0036842F60047D3F820C01A6A00
:101C4000C4F2010722F480521A621A465C6852F804
:101C50001C5FD1F800E08E68BB4204D14F6924F4C8
:101C6000804444EA87142CF4005747EA063725F4E9
:101C7000E64646EA0E265C60DE614E6809691E642F
:101C80001F62DF6947F40067DF61DF6927F480675F
:101C9000DF613AE0036842F600461D6A1A6AC4F240
:101CA000010622F010021A621A46D3F804C052F854
:101CB000184FB3428E68D1F800E025F0200545EAC0
:101CC00006150FD1CE68D1E905986FF0400725F0D1
:101CD000C00507EA061635432CF4406748EA0906B2
:101CE00047EA860C24F4E64444EA0E27C3F804C00D
:101CF0009F614F6809699F631D629F6947F4006790
:101D00009F619F6927F480679F61090213681943E7
:101D100011600021BDE8F043002280F83C20084615
:101D2000704700BF0121002280F83C200846704720
:101D3000002804BF0120704710B590F83D1031B95C
:101D4000002180F83C10044600F070F82046022183
:101D500080F83D10016840F2FF740B68C4F2000483
:101D600042F6004CA142C4F2010C15DCB1F1804FE7
:101D70001AD040F20042C4F20002914214D0A142B3
:101D800018DCB1F1804F1DD040F20042C4F20002D5
:101D9000914217D01AE000BF614505D040F600021D
:101DA000C4F200029142EAD1826823F07003134327
:101DB000A142E6DD614505D040F60002C4F2000212
:101DC000914203D1026923F440731343846923F0E1
:101DD0008002D0F804E0C368224361450A60CB6208
:101DE000C1F828E002D14269CCF8302001224A61D2
:101DF0000B69DB0703D00B6923F001030B6180F84B
:101E0000462080F83E2080F83F2080F8402080F86F
:101E1000412080F8422080F8432080F8442080F858
:101E2000452080F83D20002010BD000082B00068F1
:101E3000B0F1804F14D042F60041C4F20101884253
:101E40001BD141F21800C4F20200016841F40061A4
:101E50000160006800F400600190019802B07047D2
:101E600041F21800C4F20200416841F001014160F2
:101E7000406800F001000090009802B07047000038
:101E8000C1B1042908D0082914BF41224022825C34
:101E9000012A05D016E000BF3F22825C012A11D141
:101EA0000222082910D0042914BF80F8412080F8AC
:101EB0003F200BE090F83E20012A03D1022280F857
:101EC0003E2003E00120704780F84020006801F0C8
:101ED0001F010122036A8A4023EA02010162036AA8
:101EE00042F64441C4F201011A43A1F1440398426D
:101EF00002620FD040F2FF71C4F20001884213DC8D
:101F0000B0F1804F1CD040F20041C4F20001884281
:101F100016D01CE00A6842F400420A6040F2FF71E9
:101F2000C4F200018842EBDD42F60041C4F2010137
:101F3000884205D040F60001C4F20001884206D173
:101F4000816801F00701062904BF0020704701687D
:101F500041F001010160002070470000704700005F
:101F600070470000B0B582B001680A68CC684B6960
:101F700002F02F05202D04F0200505D125B102B077
:101F8000BDE8B04000F0B4BD5FEA027C1EBF03F0C4
:101F9000010E04F4907313EB0E0341D1036BD506CD
:101FA00018D5012B16D114F0100313D00022019282
:101FB0000A6801924A680192019A496949064BD41C
:101FC000818DC28DC38D002B18BF914240F0F481EA
:101FD00002B0B0BD13062DD514F080032AD090F8BE
:101FE0004120212AF4D18268B2F5805F03D10269D1
:101FF000002A00F06782026A531C036212784A606A
:10200000C28C013A1304C284E2D1C86820F0800077
:10201000C860C86840F04000C86002B0B0BD00BFF2
:10202000D30718BF14F4807340F0D080530700F139
:10203000D380D8E05206CBD514F04002C8D0CA688D
:1020400022F04002CA60202180F8411002B0BDE8B1
:10205000B04000F001BB00BFC16B0A68526893B288
:10206000002BB5D0858DAB42B2D2C28589692029BB
:1020700000F0A180016851E8031F026821F480711B
:1020800042E80313DBB1016851E8031F026821F441
:10209000807142E8031393B1016851E8031F02689D
:1020A00021F4807142E803134BB1016851E8031F2A
:1020B000026821F4807142E80313002BDAD1016831
:1020C00051E8051F026821F0010142E80513C3B37E
:1020D000016851E8051F026821F0010142E805137B
:1020E0007BB3016851E8051F026821F0010142E855
:1020F000051333B3016851E8051F026821F001019F
:1021000042E80513002BDAD11BE000BF016851E85B
:10211000051F026821F0400142E80513DBB10168A8
:1021200051E8051F026821F0400142E8051393B110
:10213000016851E8051F026821F0400142E80513DB
:102140004BB1016851E8051F026821F0400142E8E7
:102150000513002BDAD1202180F842100021016301
:10216000016851E8031F026821F0100142E80313DF
:10217000DBB1016851E8031F026821F0100142E859
:10218000031393B1016851E8031F026821F01001A5
:1021900042E803134BB1016851E8031F026821F0C4
:1021A000100142E80313002BDAD1C16B0446084644
:1021B000FEF7B0FB204602214163818DC28D891A52
:1021C00089B202B0BDE8B040FFF7C8BE436C43F02F
:1021D00001034364530706D5BEF1000F03D0436CDF
:1021E00043F002034364930706D5BEF1000F03D00A
:1021F000436C43F004034364BCF1000F06D55EEA70
:10220000050303D0436C43F008034364436C002B85
:102210003FF4DEAE920605D525B1044600F068FC19
:10222000216820464969426C01F0400102F0080231
:10223000891800F0B98000BF016851E8031F0268E7
:1022400021F4907142E80313BBB3016851E8031F06
:10225000026821F4907142E8031373B3016851E8F6
:10226000031F026821F4907142E803132BB3016845
:1022700051E8031F026821F4907142E80313002B18
:10228000DAD11AE0016851E8051F026821F0010166
:1022900042E80513DBB1016851E8051F026821F02F
:1022A000010142E8051393B1016851E8051F026876
:1022B00021F0010142E805134BB1016851E8051F07
:1022C000026821F0010142E80513002BDAD1016B0D
:1022D000012924D1016851E8031F026821F010018F
:1022E00042E80313DBB1016851E8031F026821F0E3
:1022F000100142E8031393B1016851E8031F02681B
:1023000021F0100142E803134BB1016851E8031FAB
:10231000026821F0100142E80313002BDAD12021DA
:1023200080F842100021016301684969490640F1C3
:10233000C380016851E8051F026821F0400142E8AE
:102340000513DBB1016851E8051F026821F0400167
:1023500042E8051393B1016851E8051F026821F0B6
:10236000400142E805134BB1016851E8051F0268BE
:1023700021F0400142E80513002BDAD1C16B00299E
:1023800000F09A8042F6E522C0F6000204460846B4
:102390004A63FEF7E3FA00283FF41AAEE06B416BA4
:1023A00002B0BDE8B04008470446FFF7D9FD002061
:1023B000606402B0B0BD00BF891A00BF026852E875
:1023C000032F036822F4907243E80325BDB302682B
:1023D00052E8032F036822F4907243E8032575B393
:1023E000026852E8032F036822F4907243E8032541
:1023F0002DB3026852E8032F036822F4907243E879
:102400000325002DDAD11AE0026852E8052F03688F
:1024100022F0010243E80525DDB1026852E8052FEC
:10242000036822F0010243E8052595B1026852E8ED
:10243000052F036822F0010243E805254DB102682B
:1024400052E8052F036822F0010243E80525002D1C
:10245000DAD1202280F8422000220263026852E88A
:10246000032F036822F0100243E80325DDB1026860
:1024700052E8032F036822F0100243E8032595B1C8
:10248000026852E8032F036822F0100243E8032594
:102490004DB1026852E8032F036822F0100243E8AE
:1024A0000325002DDAD1022289B2426302B0BDE8D1
:1024B000B040FFF753BD00BF02B0BDE8B040FFF72A
:1024C0004FBD00BF026A32F8023B6FF35F234B60DF
:1024D000026295E5002804BF0120704710B504464C
:1024E00090F8410028B9002084F84000204600F010
:1024F00063F8242084F841002068D4E90212C368FC
:1025000023F40053C360036923F440531A43026168
:10251000D4E904231143C268194341F20C639A437E
:102520001143C1604169A26921F44071114343F62E
:102530000002C4F201029042416103D0FEF7EAFFBB
:1025400002E000BFFEF7FAFFD4E900231921484357
:102550009900B0FBF1F048F21F5CC5F2EB1CA0FB48
:102560000C314FF69C734909C0F6FF7301FB030061
:10257000322303EB0010A0FB0C03F02000EA531001
:1025800000EB0110C3F3431108449060106920214F
:1025900020F490401061506920F02A005061D0680A
:1025A00040F40050D0600020606484F8411084F84A
:1025B0004210606310BD000070B586B040F6004464
:1025C000C4F20104006804F53051002688420596E3
:1025D000CDE90366029601D006B070BD41F2180045
:1025E000C4F20200016802AD41F48041016001685B
:1025F00001F4804101910199016841F008010160F5
:102600000068294600F008000190019840200290DF
:1026100002200390032005902046FEF75DFB8020FA
:10262000CDE90206204629460496FEF755FB042014
:10263000C4F201000168002241F0E06141F00401B0
:10264000016025200121FEF7C9FD2520FEF7B4FD1C
:1026500006B070BD7047000070470000FEE7000044
:1026600010B584B040F2840042F20041C2F2000092
:10267000C4F201014FF4807C012400234FF4602256
:1026800080E80A10082104730375C2610161FDF737
:1026900097FF002818BFFDF787FE40F28400CDE9C0
:1026A00001440224C2F2000001A90394FDF7C6FE12
:1026B000002818BFFDF778FE40F28400C2F2000047
:1026C00001A9CDE90144FDF7B9FE002818BFFDF7C7
:1026D0006BFE0320CDE9010040F28400C2F200004D
:1026E00001A9FDF7ABFE002818BFFDF75DFE042031
:1026F000CDE9010040F28400C2F2000001A9FDF71B
:102700009DFE002818BFFDF74FFE0520CDE9010012
:1027100040F28400C2F2000001A9FDF78FFE0028FC
:1027200018BFFDF741FE0620CDE9010040F284000C
:10273000C2F2000001A9FDF781FE002818BFFDF7D5
:1027400033FE0720CDE9010040F28400C2F2000010
:1027500001A9FDF773FE002818BFFDF725FE08202C
:10276000CDE9010040F28400C2F2000001A9FDF7AA
:1027700065FE002818BFFDF717FE04B010BD00006D
:1027800080B582B041F21400C4F202000168002258
:1027900041F0010101600068002100F0010001909A
:1027A00001980B20FEF71AFD0B2002B0BDE8804017
:1027B000FEF702BD2DE9F04F85B0002741F2180069
:1027C000CDE90377CDE90177C4F20200016840F654
:1027D000004B41F0100101600168C4F2010B01F0EF
:1027E0001001009100990168ABF5806A41F0200169
:1027F00001600168002201F0200100910099016848
:102800004FF4706941F004010160016801F00401B6
:1028100000910099016841F00801016000684FF4DF
:10282000706100F00800009000985046FEF75CFBD5
:102830005846302100224FF03008FEF755FB4FF488
:102840000040002501AE0190C1F211050BF580603A
:102850003146CDE90257FEF73FFA4FF4006001A977
:10286000A1C158463146FEF737FA4FF48050CDE902
:102870000107584631460397FEF72EFA0125022438
:1028800050463146CDF80490CDE902570494FEF746
:1028900023FA58463146CDE90185CDE90374FEF7A8
:1028A0001BFA05B0BDE8F08F80B540F2F80045F2A4
:1028B0000041C2F20000C4F2000148F2A06200230D
:1028C0004FF4804CC0F2010280E80E00C0E9033CE6
:1028D000C0E90533C0E90733FEF712FB002808BF43
:1028E00080BDBDE88040FDF75FBD000080B592B0BF
:1028F00040F24C1042F600420021C2F20000C4F245
:10290000010223234FF47A7C1191CDE90F11CDE917
:102910000D11CDE90B11CDE90911CDE90711CDE973
:102920000511CDE90311CDE90111C0E90023C0E98A
:10293000021CC0E904118161FFF7FAF9002818BFF1
:10294000FDF732FD40F24C10C2F2000010A9FFF773
:1029500045F8002818BFFDF727FD602009900020EA
:10296000CDE90A00CDE90C00CDE90E0040F24C1093
:10297000C2F2000009A90022FFF7D8F8002818BF0A
:10298000FDF712FD40F24C10C2F2000009A904222A
:10299000FFF7CCF8002818BFFDF706FD00200590D2
:1029A000CDE90300CDE901004FF40051089040F259
:1029B0004C100691C2F2000001A9FEF7E9FF0028C1
:1029C00018BFFDF7F1FC40F24C10C2F20000FFF717
:1029D00045F812B080BD000080B58AB040F2941076
:1029E0000021C2F200004FF0804223234FF0FF0C81
:1029F000CDE90811CDE90611CDE90411C0E90023A4
:102A0000C0E9021C01618161FFF792F9002818BF3B
:102A1000FDF7CAFC40F29410C2F2000008A9FEF7CC
:102A2000DDFF002818BFFDF7BFFC602001900020EB
:102A3000CDE90200059040F29410C2F2000001A915
:102A40000022FFF773F8002818BFFDF7ADFC40F235
:102A50009410C2F2000001A90422FFF767F80028D1
:102A600018BFFDF7A1FC40F29410C2F2000001A9CA
:102A70000822FFF75BF8002818BFFDF795FC40F22D
:102A80009410C2F20000FEF7E9FF0AB080BD00001A
:102A900080B540F2DC1043F60001C2F20000C4F23F
:102AA000010100234FF00C0C4FF4E13280E80E00DE
:102AB000C0E90333C0E905C3C361FFF70BFD00287C
:102AC00008BF80BDBDE88040FDF76EBCFEE700009A
:102AD000FEE700007047000070470000FEF704BBEF
:102AE00070470000406A0021C185C184FFF738BAF1
:102AF00081B090F84210222921D183680246B3F5B3
:102B0000805F09D152F8281F52F8183C002B63D07F
:102B100003685B680AE000BF52F8281F13B9036915
:102B2000002BF5D003685B6803F07F030B7011681E
:102B300001311160C18D01390A04C18502D001B093
:102B4000704700BF0168CA6822F02002CA60CA68E4
:102B500022F48072CA604A6922F001024A6120218F
:102B600080F8421000214163026B012A3CD10163CD
:102B7000016851E8031F026821F0100142E80313C5
:102B8000DBB1016851E8031F026821F0100142E83F
:102B9000031393B1016851E8031F026821F010018B
:102BA00042E803134BB1016851E8031F026821F0AA
:102BB000100142E80313002BDAD101680A68D2063B
:102BC00006D5002200920A68009249680091009997
:102BD000818D01B0FFF7C2B9026852686FF35F22BE
:102BE00021F8022B8162A5E701B0FFF733BD000099
:102BF00040F2DC10C2F20000FFF7B4B9FEE70000BB
:102C00007047000094B0FEF77DFA00240120CDE962
:102C10000F44CDE90D440A900E904FF4E0104FF4AC
:102C20008031022513900AA80494CDE90244CDE92D
:102C30000B14CDE91151FEF795FC28B1EFF310808C
:102C400072B600BFFEE700BF0F20CDE905054FF4C7
:102C50008060CDE9080405A802210794FEF77CFBFB
:102C600020B1EFF3108072B6FEE700BF02200190A2
:102C70004FF40040039001A8FEF7ECFA20B1EFF307
:102C8000108072B6FEE700BFFFF794FDFFF778FDF6
:102C9000FFF7E6FCFFF72AFEFFF79EFEFFF7F8FEC0
:102CA000FFF702FE40F24C14C2F20004204600215D
:102CB000FFF7E6F820460421FFF7E2F840F294140B
:102CC000C2F2000420460021FFF7DAF82046042172
:102CD000FFF7D6F820460821FFF7D2F800F00AF8EF
:102CE0000446FFF78DFF04F16400C4F1640100F0B5
:102CF00067F8F3E72DE9F04381B0FDF75BFB01884E
:102D0000C7888388068945894288848907EBC10181
:102D1000C089EB1A711AA21A01EB430102EB4202BD
:102D200001EB800000EB0208404600F02EF940F273
:102D30007009C2F200090446B9F90000B9F902703D
:102D40000D4600F022F922462B4600F047F800F02D
:102D5000EDF80646A9F80000384600F016F90246DC
:102D60000B462046294600F025FA00F0DFF807461A
:102D70003046A9F8028000F008F949F69A1649F69B
:102D80009918C9F69916C3F6B9783246434600F049
:102D900013F922462B4600F021F8044638460D462A
:102DA00000F0F3F83246434600F006F922462B467F
:102DB00000F014F800F0BAF801B0BDE8F0830000AC
:102DC00040F24C120028C2F2000248BF40420029E3
:102DD00048BF4942126850639163704710B591EA49
:102DE000030F48BF83F0004300F1EC81841A71EBBC
:102DF000030C05D2121943EB0C03001B61EB0C0111
:102E00004FEA1154A4EB135CDFF81CE11EEA430FF8
:102E100018BF9EEA445F00F0748021EA045123EA5F
:102E20000E0343F48013DCF1200E32D322FA0CFEA1
:102E300010EB0E0023FA0CFE41EB0E01CCF1200E3C
:102E400003FA0EFE10EB0E00CCF1200E51F1000142
:102E5000B1F5801F32D201EB045112FA0EF2BDE837
:102E6000104058BF7047401C38BF5FEA420218BF8D
:102E70007047002814BF20F0010041F100014FEA23
:102E8000410313F5001F38BF7047A1F1C04100F0A6
:102E90008BB9012A43EB0302ACF1200CDCF11F0ECD
:102EA00032BF4FF0000E23FA0CF310EB030041EB9E
:102EB0000451B4EB115FD0D0A1EB045101F58011A6
:102EC000490801EB04515FEA30000ED350F10000D5
:102ED00038BF12FA0EFE08D1BDE81040C9E7401C09
:102EE00038BF5FEA4202CAD1C3E7BDE810404FEAEB
:102EF000410313F5001F38BF7047A1F1C04100F036
:102F000053B99EEA445F08D011EA5E0FBDE8104055
:102F100004BF01F0004100207047BDE8104070B5CB
:102F200000F0F4F864FBBE3E0000E0FF4FEA41030E
:102F30004FEA5353A3F58063D3F11E03C8BFD3F107
:102F4000210C0CDD4FF0004242EAC12242EA50520D
:102F500032FA03FC8CEAE17CACEBE1707047102B99
:102F6000C4BF0020704703F5787CBCF1FF3F04D05C
:102F70006FF0004282EA2100704770B500F0C6F899
:102F80004992248000207047F2E710F0004248BFC9
:102F90004042B0FA80F310FA03F10AD0C3F11D03E6
:102FA00003F5806302EB03524FEA415002EBD1215B
:102FB00070474FF00000704770B5DFF848C11CEA59
:102FC000111E1EBF1CEA13159EEA0C0F95EA0C0F8A
:102FD00000F06F8081EA03044EEAD47EAE4421EA19
:102FE0004C1123EA4C1341F4801143F48013AEF1E9
:102FF0007F7EA1FB024CA0FB0365361955EB0C0547
:10300000A1FB034C4CF10003A0FB021C16EB0C06C9
:10301000654153F10003094218BF46F0010613F45D
:10302000007F0BD14FEA03314FEA053041EA1551D9
:1030300040EA165034036FF003020AE04FEAC3215E
:103040004FEAC52041EA555140EA5650F4026FF06C
:10305000020202EB2E4201EB025585EACE710AD044
:103060005FEA440C18BF24F0004450F1000041F125
:10307000000120EAD47040F2FE7C624500D270BDAF
:10308000A84214BF4FF080444FF04044002E08BFC8
:103090000024BEF1806FA8BFA1F1C041BDE870401F
:1030A00080F2828001F1C04101F000414FF0000048
:1030B00070470CEA13159EEA0C0F18BF95EA0C0F27
:1030C00006D081EA030E4FF000000EF0004170BD03
:1030D00000F01CF88900013E00F007B800F009B8C4
:1030E0004FEA430C5FEA5C5C08D081EA030100F020
:1030F0005BB84FEA410C5FEA5C5CF6D102494FF0E5
:10310000000070470000FF070000F87F0EF1020E7C
:103110002EF0030E5EF8046B364205D4012A43EB11
:10312000030515F5001F12D8012841EB010C1CF511
:10313000001F0CD80ED14FEAD17C0CEB4C0C0CF1DB
:10314000020C15F5001F08BF4CEBD37C04E04FF0D8
:10315000080C01E04FEAD37C0CEB4C0526FA05F68F
:1031600006F00706B6F1040C06D20EEB860CBDE89D
:1031700070404CF0010C6047DFE80CF0090B0202D4
:103180004FF00041A1F500214FF0000070BD19463D
:103190001046012851EB010418BFD4F5001484BF78
:1031A000002001F0004170BD0808A0F500114FEAB1
:1031B0003101704710B591EA030F48BF83F0004317
:1031C0003FF514AE841A71EB030C07D28CF0004C5F
:1031D000121943EB0C03001B61EB0C014FEA115475
:1031E000A4EB135CDFF8A4E11EEA430F18BF9EEACC
:1031F000445F00F0B48021EA045123EA6E03524296
:10320000C3EB6E0338BF5B1EDCF1200E25D322FA20
:103210000CFE10EB0E0043FA0CFE41EB0E01CCF15C
:10322000200E03FA0EFE10EB0E00CCF1200E51F131
:10323000000129D401EB045112FA0EF2BDE810404E
:1032400058BF7047401C1CBFB2F1004F70470028A8
:103250000CBF491C20F00100704712EB020E43EB3B
:10326000030218BF4FF0010E4EEA4202ACF1200CEF
:10327000DCF11E0E56D943FA0CFE10EB0E00CCF119
:103280001E0E51F1FF31D5D50EF1010E12FA0EFED0
:10329000404141EB010101EB445C5FEA5C5C10D909
:1032A00001EB045110EBDE7038BFBEF1004FBDE8FA
:1032B000104018BF704700280CBF491C20F00100C7
:1032C000704734D24FEAD42C24F4006411F5001175
:1032D0001BD0B1FA81F20B3AA41AA41ED2F120033A
:1032E000914030FA03F31943904001EBCC7101EBAC
:1032F0000451002CBDE81040A8BF704701F1C04147
:1033000001F000414FF000007047B0FA80F310FA6E
:1033100003F102D1BDE810407047E41A173C48059C
:10332000C90AE2E701EB0451BDE8104070474910BB
:103330004FEA300001EB0451BDE8104002E04FF0CD
:10334000000170474A0008BF0042F8D0B2F5001FE4
:1033500028BF704701F000414FF0000070479EEA1F
:10336000445F07D011EA5E0FBDE8104004BF0021A2
:1033700000207047BDE8104070B5FFF7C7FE00BFE2
:1033800040DFF63E104683F0004170470000E0FF4A
:103390000000000000000000010203040607080905
:1033A00000000000010203040102020304050607F5
:1033B00008090A0B0C0D0E0F10100000E033000876
:1033C000000000201000000050010008F033000849
:1033D0001000002018080000700100080000000024
:1033E000010000001000000000127A000000000040
:04000005080000ED02
:00000001FF
